{
  "contractName": "Market",
  "abi": [
    {
      "inputs": [],
      "stateMutability": "nonpayable",
      "type": "constructor"
    },
    {
      "inputs": [
        {
          "internalType": "uint256",
          "name": "",
          "type": "uint256"
        }
      ],
      "name": "accessories",
      "outputs": [
        {
          "internalType": "uint256",
          "name": "accessoriesId",
          "type": "uint256"
        },
        {
          "internalType": "string",
          "name": "accessoriesName",
          "type": "string"
        },
        {
          "internalType": "uint256",
          "name": "accessoriesPricePerKg",
          "type": "uint256"
        },
        {
          "internalType": "address",
          "name": "ownerAddress",
          "type": "address"
        }
      ],
      "stateMutability": "view",
      "type": "function",
      "constant": true
    },
    {
      "inputs": [
        {
          "internalType": "uint256",
          "name": "",
          "type": "uint256"
        }
      ],
      "name": "calls",
      "outputs": [
        {
          "internalType": "address",
          "name": "requester",
          "type": "address"
        },
        {
          "internalType": "address",
          "name": "requestee",
          "type": "address"
        },
        {
          "internalType": "string",
          "name": "roomId",
          "type": "string"
        },
        {
          "internalType": "string",
          "name": "description",
          "type": "string"
        },
        {
          "internalType": "string",
          "name": "dateTime",
          "type": "string"
        }
      ],
      "stateMutability": "view",
      "type": "function",
      "constant": true
    },
    {
      "inputs": [
        {
          "internalType": "uint256",
          "name": "",
          "type": "uint256"
        }
      ],
      "name": "negotiations",
      "outputs": [
        {
          "internalType": "uint256",
          "name": "negotiationId",
          "type": "uint256"
        },
        {
          "internalType": "uint256",
          "name": "productId",
          "type": "uint256"
        },
        {
          "internalType": "address",
          "name": "buyerAddress",
          "type": "address"
        },
        {
          "internalType": "address",
          "name": "sellerAddress",
          "type": "address"
        },
        {
          "internalType": "uint256",
          "name": "quantity",
          "type": "uint256"
        },
        {
          "internalType": "uint256",
          "name": "totalPrice",
          "type": "uint256"
        },
        {
          "internalType": "bool",
          "name": "isAccepted",
          "type": "bool"
        },
        {
          "internalType": "bool",
          "name": "isRejected",
          "type": "bool"
        }
      ],
      "stateMutability": "view",
      "type": "function",
      "constant": true
    },
    {
      "inputs": [
        {
          "internalType": "uint256",
          "name": "",
          "type": "uint256"
        }
      ],
      "name": "products",
      "outputs": [
        {
          "internalType": "uint256",
          "name": "productId",
          "type": "uint256"
        },
        {
          "internalType": "address",
          "name": "ownerAddress",
          "type": "address"
        },
        {
          "internalType": "string",
          "name": "productName",
          "type": "string"
        },
        {
          "internalType": "string",
          "name": "productDescription",
          "type": "string"
        },
        {
          "internalType": "string",
          "name": "productCategory",
          "type": "string"
        },
        {
          "internalType": "string",
          "name": "productImage",
          "type": "string"
        },
        {
          "internalType": "uint256",
          "name": "productPrice",
          "type": "uint256"
        },
        {
          "internalType": "uint256",
          "name": "minQuantity",
          "type": "uint256"
        },
        {
          "internalType": "uint256",
          "name": "maxQuantity",
          "type": "uint256"
        },
        {
          "internalType": "uint256",
          "name": "totalQuantity",
          "type": "uint256"
        }
      ],
      "stateMutability": "view",
      "type": "function",
      "constant": true
    },
    {
      "inputs": [
        {
          "internalType": "uint256",
          "name": "",
          "type": "uint256"
        }
      ],
      "name": "purchases",
      "outputs": [
        {
          "internalType": "uint256",
          "name": "purchaseId",
          "type": "uint256"
        },
        {
          "components": [
            {
              "internalType": "uint256",
              "name": "productId",
              "type": "uint256"
            },
            {
              "internalType": "address",
              "name": "ownerAddress",
              "type": "address"
            },
            {
              "internalType": "string",
              "name": "productName",
              "type": "string"
            },
            {
              "internalType": "string",
              "name": "productDescription",
              "type": "string"
            },
            {
              "internalType": "string",
              "name": "productCategory",
              "type": "string"
            },
            {
              "internalType": "string",
              "name": "productImage",
              "type": "string"
            },
            {
              "internalType": "uint256",
              "name": "productPrice",
              "type": "uint256"
            },
            {
              "internalType": "uint256",
              "name": "minQuantity",
              "type": "uint256"
            },
            {
              "internalType": "uint256",
              "name": "maxQuantity",
              "type": "uint256"
            },
            {
              "internalType": "uint256",
              "name": "totalQuantity",
              "type": "uint256"
            }
          ],
          "internalType": "struct Market.Product",
          "name": "product",
          "type": "tuple"
        },
        {
          "internalType": "address",
          "name": "buyerAddress",
          "type": "address"
        },
        {
          "internalType": "uint256",
          "name": "quantity",
          "type": "uint256"
        },
        {
          "internalType": "uint256",
          "name": "totalPrice",
          "type": "uint256"
        },
        {
          "internalType": "int256",
          "name": "accessoriesId1",
          "type": "int256"
        },
        {
          "internalType": "int256",
          "name": "accessoriesId2",
          "type": "int256"
        },
        {
          "internalType": "int256",
          "name": "accessoriesId3",
          "type": "int256"
        }
      ],
      "stateMutability": "view",
      "type": "function",
      "constant": true
    },
    {
      "inputs": [
        {
          "internalType": "uint256",
          "name": "",
          "type": "uint256"
        }
      ],
      "name": "users",
      "outputs": [
        {
          "internalType": "address",
          "name": "userAddr",
          "type": "address"
        },
        {
          "internalType": "string",
          "name": "userName",
          "type": "string"
        },
        {
          "internalType": "string",
          "name": "userEmail",
          "type": "string"
        },
        {
          "internalType": "string",
          "name": "userAddress",
          "type": "string"
        },
        {
          "internalType": "string",
          "name": "userPhone",
          "type": "string"
        },
        {
          "internalType": "string",
          "name": "userType",
          "type": "string"
        }
      ],
      "stateMutability": "view",
      "type": "function",
      "constant": true
    },
    {
      "inputs": [
        {
          "internalType": "string",
          "name": "_userName",
          "type": "string"
        },
        {
          "internalType": "string",
          "name": "_userEmail",
          "type": "string"
        },
        {
          "internalType": "string",
          "name": "_userAddress",
          "type": "string"
        },
        {
          "internalType": "string",
          "name": "_userPhone",
          "type": "string"
        },
        {
          "internalType": "string",
          "name": "_userType",
          "type": "string"
        }
      ],
      "name": "addUser",
      "outputs": [],
      "stateMutability": "nonpayable",
      "type": "function"
    },
    {
      "inputs": [
        {
          "internalType": "address",
          "name": "userAddress",
          "type": "address"
        }
      ],
      "name": "getUser",
      "outputs": [
        {
          "components": [
            {
              "internalType": "address",
              "name": "userAddr",
              "type": "address"
            },
            {
              "internalType": "string",
              "name": "userName",
              "type": "string"
            },
            {
              "internalType": "string",
              "name": "userEmail",
              "type": "string"
            },
            {
              "internalType": "string",
              "name": "userAddress",
              "type": "string"
            },
            {
              "internalType": "string",
              "name": "userPhone",
              "type": "string"
            },
            {
              "internalType": "string",
              "name": "userType",
              "type": "string"
            }
          ],
          "internalType": "struct Market.User",
          "name": "",
          "type": "tuple"
        }
      ],
      "stateMutability": "view",
      "type": "function",
      "constant": true
    },
    {
      "inputs": [],
      "name": "getMyDetails",
      "outputs": [
        {
          "components": [
            {
              "internalType": "address",
              "name": "userAddr",
              "type": "address"
            },
            {
              "internalType": "string",
              "name": "userName",
              "type": "string"
            },
            {
              "internalType": "string",
              "name": "userEmail",
              "type": "string"
            },
            {
              "internalType": "string",
              "name": "userAddress",
              "type": "string"
            },
            {
              "internalType": "string",
              "name": "userPhone",
              "type": "string"
            },
            {
              "internalType": "string",
              "name": "userType",
              "type": "string"
            }
          ],
          "internalType": "struct Market.User",
          "name": "",
          "type": "tuple"
        }
      ],
      "stateMutability": "view",
      "type": "function",
      "constant": true
    },
    {
      "inputs": [
        {
          "internalType": "string",
          "name": "_productName",
          "type": "string"
        },
        {
          "internalType": "string",
          "name": "_productDescription",
          "type": "string"
        },
        {
          "internalType": "string",
          "name": "_productCategory",
          "type": "string"
        },
        {
          "internalType": "string",
          "name": "_productImage",
          "type": "string"
        },
        {
          "internalType": "uint256",
          "name": "_productPrice",
          "type": "uint256"
        },
        {
          "internalType": "uint256",
          "name": "_minQuantity",
          "type": "uint256"
        },
        {
          "internalType": "uint256",
          "name": "_maxQuantity",
          "type": "uint256"
        },
        {
          "internalType": "uint256",
          "name": "_totalQuantity",
          "type": "uint256"
        }
      ],
      "name": "addProduct",
      "outputs": [],
      "stateMutability": "nonpayable",
      "type": "function"
    },
    {
      "inputs": [],
      "name": "getProducts",
      "outputs": [
        {
          "components": [
            {
              "internalType": "uint256",
              "name": "productId",
              "type": "uint256"
            },
            {
              "internalType": "address",
              "name": "ownerAddress",
              "type": "address"
            },
            {
              "internalType": "string",
              "name": "productName",
              "type": "string"
            },
            {
              "internalType": "string",
              "name": "productDescription",
              "type": "string"
            },
            {
              "internalType": "string",
              "name": "productCategory",
              "type": "string"
            },
            {
              "internalType": "string",
              "name": "productImage",
              "type": "string"
            },
            {
              "internalType": "uint256",
              "name": "productPrice",
              "type": "uint256"
            },
            {
              "internalType": "uint256",
              "name": "minQuantity",
              "type": "uint256"
            },
            {
              "internalType": "uint256",
              "name": "maxQuantity",
              "type": "uint256"
            },
            {
              "internalType": "uint256",
              "name": "totalQuantity",
              "type": "uint256"
            }
          ],
          "internalType": "struct Market.Product[]",
          "name": "",
          "type": "tuple[]"
        }
      ],
      "stateMutability": "view",
      "type": "function",
      "constant": true
    },
    {
      "inputs": [],
      "name": "getMyProducts",
      "outputs": [
        {
          "components": [
            {
              "internalType": "uint256",
              "name": "productId",
              "type": "uint256"
            },
            {
              "internalType": "address",
              "name": "ownerAddress",
              "type": "address"
            },
            {
              "internalType": "string",
              "name": "productName",
              "type": "string"
            },
            {
              "internalType": "string",
              "name": "productDescription",
              "type": "string"
            },
            {
              "internalType": "string",
              "name": "productCategory",
              "type": "string"
            },
            {
              "internalType": "string",
              "name": "productImage",
              "type": "string"
            },
            {
              "internalType": "uint256",
              "name": "productPrice",
              "type": "uint256"
            },
            {
              "internalType": "uint256",
              "name": "minQuantity",
              "type": "uint256"
            },
            {
              "internalType": "uint256",
              "name": "maxQuantity",
              "type": "uint256"
            },
            {
              "internalType": "uint256",
              "name": "totalQuantity",
              "type": "uint256"
            }
          ],
          "internalType": "struct Market.Product[]",
          "name": "",
          "type": "tuple[]"
        }
      ],
      "stateMutability": "view",
      "type": "function",
      "constant": true
    },
    {
      "inputs": [
        {
          "internalType": "uint256",
          "name": "_productId",
          "type": "uint256"
        },
        {
          "internalType": "uint256",
          "name": "_quantity",
          "type": "uint256"
        },
        {
          "internalType": "uint256",
          "name": "_price",
          "type": "uint256"
        }
      ],
      "name": "addNegotiation",
      "outputs": [],
      "stateMutability": "nonpayable",
      "type": "function"
    },
    {
      "inputs": [],
      "name": "getNegotiations",
      "outputs": [
        {
          "components": [
            {
              "internalType": "uint256",
              "name": "negotiationId",
              "type": "uint256"
            },
            {
              "internalType": "uint256",
              "name": "productId",
              "type": "uint256"
            },
            {
              "internalType": "address",
              "name": "buyerAddress",
              "type": "address"
            },
            {
              "internalType": "address",
              "name": "sellerAddress",
              "type": "address"
            },
            {
              "internalType": "uint256",
              "name": "quantity",
              "type": "uint256"
            },
            {
              "internalType": "uint256",
              "name": "totalPrice",
              "type": "uint256"
            },
            {
              "internalType": "bool",
              "name": "isAccepted",
              "type": "bool"
            },
            {
              "internalType": "bool",
              "name": "isRejected",
              "type": "bool"
            }
          ],
          "internalType": "struct Market.Negotiation[]",
          "name": "",
          "type": "tuple[]"
        }
      ],
      "stateMutability": "view",
      "type": "function",
      "constant": true
    },
    {
      "inputs": [
        {
          "internalType": "uint256",
          "name": "_negotiationId",
          "type": "uint256"
        }
      ],
      "name": "acceptNegotiation",
      "outputs": [],
      "stateMutability": "nonpayable",
      "type": "function"
    },
    {
      "inputs": [
        {
          "internalType": "uint256",
          "name": "_negotiationId",
          "type": "uint256"
        }
      ],
      "name": "rejectNegotiation",
      "outputs": [],
      "stateMutability": "nonpayable",
      "type": "function"
    },
    {
      "inputs": [
        {
          "internalType": "string",
          "name": "_accessoriesName",
          "type": "string"
        },
        {
          "internalType": "uint256",
          "name": "_accessoriesPricePerKg",
          "type": "uint256"
        }
      ],
      "name": "addAccessories",
      "outputs": [],
      "stateMutability": "nonpayable",
      "type": "function"
    },
    {
      "inputs": [],
      "name": "getAccessories",
      "outputs": [
        {
          "components": [
            {
              "internalType": "uint256",
              "name": "accessoriesId",
              "type": "uint256"
            },
            {
              "internalType": "string",
              "name": "accessoriesName",
              "type": "string"
            },
            {
              "internalType": "uint256",
              "name": "accessoriesPricePerKg",
              "type": "uint256"
            },
            {
              "internalType": "address",
              "name": "ownerAddress",
              "type": "address"
            }
          ],
          "internalType": "struct Market.AddAccessories[]",
          "name": "",
          "type": "tuple[]"
        }
      ],
      "stateMutability": "view",
      "type": "function",
      "constant": true
    },
    {
      "inputs": [
        {
          "internalType": "uint256",
          "name": "_productId",
          "type": "uint256"
        },
        {
          "internalType": "uint256",
          "name": "_quantity",
          "type": "uint256"
        },
        {
          "internalType": "int256",
          "name": "_accessoriesId1",
          "type": "int256"
        },
        {
          "internalType": "int256",
          "name": "_accessoriesId2",
          "type": "int256"
        },
        {
          "internalType": "int256",
          "name": "_accessoriesId3",
          "type": "int256"
        }
      ],
      "name": "purchaseProduct",
      "outputs": [],
      "stateMutability": "payable",
      "type": "function",
      "payable": true
    },
    {
      "inputs": [],
      "name": "getAllMyAccessorySales",
      "outputs": [
        {
          "components": [
            {
              "internalType": "uint256",
              "name": "purchaseId",
              "type": "uint256"
            },
            {
              "components": [
                {
                  "internalType": "uint256",
                  "name": "productId",
                  "type": "uint256"
                },
                {
                  "internalType": "address",
                  "name": "ownerAddress",
                  "type": "address"
                },
                {
                  "internalType": "string",
                  "name": "productName",
                  "type": "string"
                },
                {
                  "internalType": "string",
                  "name": "productDescription",
                  "type": "string"
                },
                {
                  "internalType": "string",
                  "name": "productCategory",
                  "type": "string"
                },
                {
                  "internalType": "string",
                  "name": "productImage",
                  "type": "string"
                },
                {
                  "internalType": "uint256",
                  "name": "productPrice",
                  "type": "uint256"
                },
                {
                  "internalType": "uint256",
                  "name": "minQuantity",
                  "type": "uint256"
                },
                {
                  "internalType": "uint256",
                  "name": "maxQuantity",
                  "type": "uint256"
                },
                {
                  "internalType": "uint256",
                  "name": "totalQuantity",
                  "type": "uint256"
                }
              ],
              "internalType": "struct Market.Product",
              "name": "product",
              "type": "tuple"
            },
            {
              "internalType": "address",
              "name": "buyerAddress",
              "type": "address"
            },
            {
              "internalType": "uint256",
              "name": "quantity",
              "type": "uint256"
            },
            {
              "internalType": "uint256",
              "name": "totalPrice",
              "type": "uint256"
            },
            {
              "internalType": "int256",
              "name": "accessoriesId1",
              "type": "int256"
            },
            {
              "internalType": "int256",
              "name": "accessoriesId2",
              "type": "int256"
            },
            {
              "internalType": "int256",
              "name": "accessoriesId3",
              "type": "int256"
            }
          ],
          "internalType": "struct Market.Purchase[]",
          "name": "",
          "type": "tuple[]"
        }
      ],
      "stateMutability": "view",
      "type": "function",
      "constant": true
    },
    {
      "inputs": [],
      "name": "getMyPurchases",
      "outputs": [
        {
          "components": [
            {
              "internalType": "uint256",
              "name": "purchaseId",
              "type": "uint256"
            },
            {
              "components": [
                {
                  "internalType": "uint256",
                  "name": "productId",
                  "type": "uint256"
                },
                {
                  "internalType": "address",
                  "name": "ownerAddress",
                  "type": "address"
                },
                {
                  "internalType": "string",
                  "name": "productName",
                  "type": "string"
                },
                {
                  "internalType": "string",
                  "name": "productDescription",
                  "type": "string"
                },
                {
                  "internalType": "string",
                  "name": "productCategory",
                  "type": "string"
                },
                {
                  "internalType": "string",
                  "name": "productImage",
                  "type": "string"
                },
                {
                  "internalType": "uint256",
                  "name": "productPrice",
                  "type": "uint256"
                },
                {
                  "internalType": "uint256",
                  "name": "minQuantity",
                  "type": "uint256"
                },
                {
                  "internalType": "uint256",
                  "name": "maxQuantity",
                  "type": "uint256"
                },
                {
                  "internalType": "uint256",
                  "name": "totalQuantity",
                  "type": "uint256"
                }
              ],
              "internalType": "struct Market.Product",
              "name": "product",
              "type": "tuple"
            },
            {
              "internalType": "address",
              "name": "buyerAddress",
              "type": "address"
            },
            {
              "internalType": "uint256",
              "name": "quantity",
              "type": "uint256"
            },
            {
              "internalType": "uint256",
              "name": "totalPrice",
              "type": "uint256"
            },
            {
              "internalType": "int256",
              "name": "accessoriesId1",
              "type": "int256"
            },
            {
              "internalType": "int256",
              "name": "accessoriesId2",
              "type": "int256"
            },
            {
              "internalType": "int256",
              "name": "accessoriesId3",
              "type": "int256"
            }
          ],
          "internalType": "struct Market.Purchase[]",
          "name": "",
          "type": "tuple[]"
        }
      ],
      "stateMutability": "view",
      "type": "function",
      "constant": true
    },
    {
      "inputs": [],
      "name": "getMySales",
      "outputs": [
        {
          "components": [
            {
              "internalType": "uint256",
              "name": "purchaseId",
              "type": "uint256"
            },
            {
              "components": [
                {
                  "internalType": "uint256",
                  "name": "productId",
                  "type": "uint256"
                },
                {
                  "internalType": "address",
                  "name": "ownerAddress",
                  "type": "address"
                },
                {
                  "internalType": "string",
                  "name": "productName",
                  "type": "string"
                },
                {
                  "internalType": "string",
                  "name": "productDescription",
                  "type": "string"
                },
                {
                  "internalType": "string",
                  "name": "productCategory",
                  "type": "string"
                },
                {
                  "internalType": "string",
                  "name": "productImage",
                  "type": "string"
                },
                {
                  "internalType": "uint256",
                  "name": "productPrice",
                  "type": "uint256"
                },
                {
                  "internalType": "uint256",
                  "name": "minQuantity",
                  "type": "uint256"
                },
                {
                  "internalType": "uint256",
                  "name": "maxQuantity",
                  "type": "uint256"
                },
                {
                  "internalType": "uint256",
                  "name": "totalQuantity",
                  "type": "uint256"
                }
              ],
              "internalType": "struct Market.Product",
              "name": "product",
              "type": "tuple"
            },
            {
              "internalType": "address",
              "name": "buyerAddress",
              "type": "address"
            },
            {
              "internalType": "uint256",
              "name": "quantity",
              "type": "uint256"
            },
            {
              "internalType": "uint256",
              "name": "totalPrice",
              "type": "uint256"
            },
            {
              "internalType": "int256",
              "name": "accessoriesId1",
              "type": "int256"
            },
            {
              "internalType": "int256",
              "name": "accessoriesId2",
              "type": "int256"
            },
            {
              "internalType": "int256",
              "name": "accessoriesId3",
              "type": "int256"
            }
          ],
          "internalType": "struct Market.Purchase[]",
          "name": "",
          "type": "tuple[]"
        }
      ],
      "stateMutability": "view",
      "type": "function",
      "constant": true
    },
    {
      "inputs": [
        {
          "internalType": "address",
          "name": "_requestee",
          "type": "address"
        },
        {
          "internalType": "string",
          "name": "_roomId",
          "type": "string"
        },
        {
          "internalType": "string",
          "name": "_description",
          "type": "string"
        },
        {
          "internalType": "string",
          "name": "_dateTime",
          "type": "string"
        }
      ],
      "name": "addCall",
      "outputs": [],
      "stateMutability": "nonpayable",
      "type": "function"
    },
    {
      "inputs": [],
      "name": "getAllMyCalls",
      "outputs": [
        {
          "components": [
            {
              "internalType": "address",
              "name": "requester",
              "type": "address"
            },
            {
              "internalType": "address",
              "name": "requestee",
              "type": "address"
            },
            {
              "internalType": "string",
              "name": "roomId",
              "type": "string"
            },
            {
              "internalType": "string",
              "name": "description",
              "type": "string"
            },
            {
              "internalType": "string",
              "name": "dateTime",
              "type": "string"
            }
          ],
          "internalType": "struct Market.Call[]",
          "name": "",
          "type": "tuple[]"
        }
      ],
      "stateMutability": "view",
      "type": "function",
      "constant": true
    }
  ],
  "bytecode": "0x608060405234801561001057600080fd5b5060008080556002819055600481905560068190556008819055600a55614d3f8061003c6000396000f3fe60806040526004361061014b5760003560e01c8063b37a3d82116100b6578063e4a711831161006f578063e4a7118314610492578063e5da550a146104a7578063e916c00b146104c7578063eb3f422a146104e7578063ebadff6914610507578063fdca4ca31461051c57600080fd5b8063b37a3d821461032f578063b9bc18321461034f578063bdc7ae5a14610362578063c29b2f2014610384578063d183ce14146103a6578063dcd906e1146103d757600080fd5b8063673f588811610108578063673f5888146102335780636f77926b146102535780637acc0b20146102735780637ca94210146102a95780638392fe31146102d957806391369afe1461030d57600080fd5b80630f1b620e146101505780632193b4f81461017b578063365b98b21461019d578063431bbb7e146101cf578063528088cd146101f15780635ed0726d14610213575b600080fd5b34801561015c57600080fd5b50610165610531565b60405161017291906142f4565b60405180910390f35b34801561018757600080fd5b5061019b6101963660046143b1565b610b19565b005b3480156101a957600080fd5b506101bd6101b83660046143dd565b610c09565b604051610172969594939291906143f6565b3480156101db57600080fd5b506101e4610ef1565b6040516101729190614475565b3480156101fd57600080fd5b506102066112a7565b6040516101729190614522565b34801561021f57600080fd5b5061019b61022e36600461464a565b61144a565b34801561023f57600080fd5b5061019b61024e3660046143dd565b61158c565b34801561025f57600080fd5b506101e461026e366004614736565b611694565b34801561027f57600080fd5b5061029361028e3660046143dd565b611a4f565b6040516101729a99989796959493929190614758565b3480156102b557600080fd5b506102c96102c43660046143dd565b611cc6565b60405161017294939291906147eb565b3480156102e557600080fd5b506102f96102f43660046143dd565b611d81565b604051610172989796959493929190614825565b34801561031957600080fd5b5061032261206e565b604051610172919061487b565b34801561033b57600080fd5b5061019b61034a36600461491a565b61227f565b61019b61035d3660046149eb565b612381565b34801561036e57600080fd5b50610377612930565b6040516101729190614a26565b34801561039057600080fd5b50610399612c9c565b6040516101729190614add565b3480156103b257600080fd5b506103c66103c13660046143dd565b612fde565b604051610172959493929190614b3f565b3480156103e357600080fd5b506104476103f23660046143dd565b6007602052600090815260409020805460018201546002830154600384015460048501546005860154600690960154949593946001600160a01b03938416949390921692909160ff8082169161010090041688565b6040805198895260208901979097526001600160a01b0395861696880196909652939092166060860152608085015260a0840152151560c0830152151560e082015261010001610172565b34801561049e57600080fd5b506101656131b2565b3480156104b357600080fd5b5061019b6104c2366004614b9d565b6135ed565b3480156104d357600080fd5b5061019b6104e23660046143dd565b6136d5565b3480156104f357600080fd5b5061019b610502366004614c35565b6137d6565b34801561051357600080fd5b50610165613869565b34801561052857600080fd5b50610399613ca4565b60606000805b600454811015610656576000818152600560205260409020600e01546000191480159061058d57506000818152600560209081526040808320600e0154835260099091529020600301546001600160a01b031633145b806105df57506000818152600560205260409020600f0154600019148015906105df57506000818152600560209081526040808320600f0154835260099091529020600301546001600160a01b031633145b806106315750600081815260056020526040902060100154600019148015906106315750600081815260056020908152604080832060100154835260099091529020600301546001600160a01b031633145b15610644578161064081614c8f565b9250505b8061064e81614c8f565b915050610537565b506000816001600160401b03811115610671576106716145a8565b6040519080825280602002602001820160405280156106aa57816020015b610697614060565b81526020019060019003908161068f5790505b5090506000805b600454811015610b10576000818152600560205260409020600e01546000191480159061070757506000818152600560209081526040808320600e0154835260099091529020600301546001600160a01b031633145b8061075957506000818152600560205260409020600f01546000191480159061075957506000818152600560209081526040808320600f0154835260099091529020600301546001600160a01b031633145b806107ab5750600081815260056020526040902060100154600019148015906107ab5750600081815260056020908152604080832060100154835260099091529020600301546001600160a01b031633145b15610afe5760008181526005602090815260409182902082516101008101845281548152835161014081018552600183018054825260028401546001600160a01b031682860152600384018054939694958701949293919284019161080f90614ca8565b80601f016020809104026020016040519081016040528092919081815260200182805461083b90614ca8565b80156108885780601f1061085d57610100808354040283529160200191610888565b820191906000526020600020905b81548152906001019060200180831161086b57829003601f168201915b505050505081526020016003820180546108a190614ca8565b80601f01602080910402602001604051908101604052809291908181526020018280546108cd90614ca8565b801561091a5780601f106108ef5761010080835404028352916020019161091a565b820191906000526020600020905b8154815290600101906020018083116108fd57829003601f168201915b5050505050815260200160048201805461093390614ca8565b80601f016020809104026020016040519081016040528092919081815260200182805461095f90614ca8565b80156109ac5780601f10610981576101008083540402835291602001916109ac565b820191906000526020600020905b81548152906001019060200180831161098f57829003601f168201915b505050505081526020016005820180546109c590614ca8565b80601f01602080910402602001604051908101604052809291908181526020018280546109f190614ca8565b8015610a3e5780601f10610a1357610100808354040283529160200191610a3e565b820191906000526020600020905b815481529060010190602001808311610a2157829003601f168201915b505050505081526020016006820154815260200160078201548152602001600882015481526020016009820154815250508152602001600b820160009054906101000a90046001600160a01b03166001600160a01b03166001600160a01b03168152602001600c8201548152602001600d8201548152602001600e8201548152602001600f8201548152602001601082015481525050838380610ae090614c8f565b945081518110610af257610af2614cdc565b60200260200101819052505b80610b0881614c8f565b9150506106b1565b50909392505050565b6040805161010080820183526006805480845260208085018981523386880190815260008b815260038085528982206001908101546001600160a01b0390811660608c0190815260808c018f815260a08d018f815260c08e0187815260e08f018881529b88526007909a529d86209c518d559651928c0192909255935160028b0180549186166001600160a01b03199283161790559051918a0180549290941691161790915590516004870155955160058601555193820180549151151590930261ff00199415159490941661ffff1990911617929092179055805491610bff83614c8f565b9190505550505050565b6001602081905260009182526040909120805491810180546001600160a01b0390931692610c3690614ca8565b80601f0160208091040260200160405190810160405280929190818152602001828054610c6290614ca8565b8015610caf5780601f10610c8457610100808354040283529160200191610caf565b820191906000526020600020905b815481529060010190602001808311610c9257829003601f168201915b505050505090806002018054610cc490614ca8565b80601f0160208091040260200160405190810160405280929190818152602001828054610cf090614ca8565b8015610d3d5780601f10610d1257610100808354040283529160200191610d3d565b820191906000526020600020905b815481529060010190602001808311610d2057829003601f168201915b505050505090806003018054610d5290614ca8565b80601f0160208091040260200160405190810160405280929190818152602001828054610d7e90614ca8565b8015610dcb5780601f10610da057610100808354040283529160200191610dcb565b820191906000526020600020905b815481529060010190602001808311610dae57829003601f168201915b505050505090806004018054610de090614ca8565b80601f0160208091040260200160405190810160405280929190818152602001828054610e0c90614ca8565b8015610e595780601f10610e2e57610100808354040283529160200191610e59565b820191906000526020600020905b815481529060010190602001808311610e3c57829003601f168201915b505050505090806005018054610e6e90614ca8565b80601f0160208091040260200160405190810160405280929190818152602001828054610e9a90614ca8565b8015610ee75780601f10610ebc57610100808354040283529160200191610ee7565b820191906000526020600020905b815481529060010190602001808311610eca57829003601f168201915b5050505050905086565b610ef96140b4565b60005b60005481101561124257600081815260016020526040902054336001600160a01b039091160361123057600081815260016020818152604092839020835160c0810190945280546001600160a01b03168452918201805491840191610f6090614ca8565b80601f0160208091040260200160405190810160405280929190818152602001828054610f8c90614ca8565b8015610fd95780601f10610fae57610100808354040283529160200191610fd9565b820191906000526020600020905b815481529060010190602001808311610fbc57829003601f168201915b50505050508152602001600282018054610ff290614ca8565b80601f016020809104026020016040519081016040528092919081815260200182805461101e90614ca8565b801561106b5780601f106110405761010080835404028352916020019161106b565b820191906000526020600020905b81548152906001019060200180831161104e57829003601f168201915b5050505050815260200160038201805461108490614ca8565b80601f01602080910402602001604051908101604052809291908181526020018280546110b090614ca8565b80156110fd5780601f106110d2576101008083540402835291602001916110fd565b820191906000526020600020905b8154815290600101906020018083116110e057829003601f168201915b5050505050815260200160048201805461111690614ca8565b80601f016020809104026020016040519081016040528092919081815260200182805461114290614ca8565b801561118f5780601f106111645761010080835404028352916020019161118f565b820191906000526020600020905b81548152906001019060200180831161117257829003601f168201915b505050505081526020016005820180546111a890614ca8565b80601f01602080910402602001604051908101604052809291908181526020018280546111d490614ca8565b80156112215780601f106111f657610100808354040283529160200191611221565b820191906000526020600020905b81548152906001019060200180831161120457829003601f168201915b50505050508152505091505090565b8061123a81614c8f565b915050610efc565b50506040805160c08101825260008082528251602081810185528282528084019190915283518082018552828152838501528351808201855282815260608401528351808201855282815260808401528351908101909352825260a081019190915290565b606060006008546001600160401b038111156112c5576112c56145a8565b60405190808252806020026020018201604052801561132a57816020015b611317604051806080016040528060008152602001606081526020016000815260200160006001600160a01b031681525090565b8152602001906001900390816112e35790505b50905060005b60085481101561144457600960008281526020019081526020016000206040518060800160405290816000820154815260200160018201805461137290614ca8565b80601f016020809104026020016040519081016040528092919081815260200182805461139e90614ca8565b80156113eb5780601f106113c0576101008083540402835291602001916113eb565b820191906000526020600020905b8154815290600101906020018083116113ce57829003601f168201915b5050509183525050600282015460208201526003909101546001600160a01b0316604090910152825183908390811061142657611426614cdc565b6020026020010181905250808061143c90614c8f565b915050611330565b50919050565b6040805161014081018252600280548083523360208085019182528486018e8152606086018e9052608086018d905260a086018c905260c086018b905260e086018a905261010086018990526101208601889052600093845260038252959092208451815590516001820180546001600160a01b0319166001600160a01b03909216919091179055935180519394859490936114eb939085019201906140f3565b50606082015180516115079160038401916020909101906140f3565b50608082015180516115239160048401916020909101906140f3565b5060a0820151805161153f9160058401916020909101906140f3565b5060c0820151600682015560e082015160078201556101008201516008820155610120909101516009909101556002805490600061157c83614c8f565b9190505550505050505050505050565b600081815260076020526040902060038101546001600160a01b031633146115ec5760405162461bcd60e51b815260206004820152600e60248201526d139bdd08185d5d1a1bdc9a5e995960921b60448201526064015b60405180910390fd5b600681015460ff16156116345760405162461bcd60e51b815260206004820152601060248201526f105b1c9958591e481858d8d95c1d195960821b60448201526064016115e3565b6006810154610100900460ff16156116815760405162461bcd60e51b815260206004820152601060248201526f105b1c9958591e481c995a9958dd195960821b60448201526064016115e3565b600601805461ff00191661010017905550565b61169c6140b4565b60005b6000548110156119e8576000818152600160205260409020546001600160a01b038085169116036119d657600081815260016020818152604092839020835160c0810190945280546001600160a01b0316845291820180549184019161170490614ca8565b80601f016020809104026020016040519081016040528092919081815260200182805461173090614ca8565b801561177d5780601f106117525761010080835404028352916020019161177d565b820191906000526020600020905b81548152906001019060200180831161176057829003601f168201915b5050505050815260200160028201805461179690614ca8565b80601f01602080910402602001604051908101604052809291908181526020018280546117c290614ca8565b801561180f5780601f106117e45761010080835404028352916020019161180f565b820191906000526020600020905b8154815290600101906020018083116117f257829003601f168201915b5050505050815260200160038201805461182890614ca8565b80601f016020809104026020016040519081016040528092919081815260200182805461185490614ca8565b80156118a15780601f10611876576101008083540402835291602001916118a1565b820191906000526020600020905b81548152906001019060200180831161188457829003601f168201915b505050505081526020016004820180546118ba90614ca8565b80601f01602080910402602001604051908101604052809291908181526020018280546118e690614ca8565b80156119335780601f1061190857610100808354040283529160200191611933565b820191906000526020600020905b81548152906001019060200180831161191657829003601f168201915b5050505050815260200160058201805461194c90614ca8565b80601f016020809104026020016040519081016040528092919081815260200182805461197890614ca8565b80156119c55780601f1061199a576101008083540402835291602001916119c5565b820191906000526020600020905b8154815290600101906020018083116119a857829003601f168201915b505050505081525050915050919050565b806119e081614c8f565b91505061169f565b50506040805160c08101825260008082528251602081810185528282528084019190915283518082018552828152838501528351808201855282815260608401528351808201855282815260808401528351908101909352825260a0810191909152919050565b60036020526000908152604090208054600182015460028301805492936001600160a01b0390921692611a8190614ca8565b80601f0160208091040260200160405190810160405280929190818152602001828054611aad90614ca8565b8015611afa5780601f10611acf57610100808354040283529160200191611afa565b820191906000526020600020905b815481529060010190602001808311611add57829003601f168201915b505050505090806003018054611b0f90614ca8565b80601f0160208091040260200160405190810160405280929190818152602001828054611b3b90614ca8565b8015611b885780601f10611b5d57610100808354040283529160200191611b88565b820191906000526020600020905b815481529060010190602001808311611b6b57829003601f168201915b505050505090806004018054611b9d90614ca8565b80601f0160208091040260200160405190810160405280929190818152602001828054611bc990614ca8565b8015611c165780601f10611beb57610100808354040283529160200191611c16565b820191906000526020600020905b815481529060010190602001808311611bf957829003601f168201915b505050505090806005018054611c2b90614ca8565b80601f0160208091040260200160405190810160405280929190818152602001828054611c5790614ca8565b8015611ca45780601f10611c7957610100808354040283529160200191611ca4565b820191906000526020600020905b815481529060010190602001808311611c8757829003601f168201915b505050505090806006015490806007015490806008015490806009015490508a565b60096020526000908152604090208054600182018054919291611ce890614ca8565b80601f0160208091040260200160405190810160405280929190818152602001828054611d1490614ca8565b8015611d615780601f10611d3657610100808354040283529160200191611d61565b820191906000526020600020905b815481529060010190602001808311611d4457829003601f168201915b5050505060028301546003909301549192916001600160a01b0316905084565b6005602090815260009182526040918290208054835161014081018552600183018054825260028401546001600160a01b031694820194909452600383018054929593949193919291840191611dd690614ca8565b80601f0160208091040260200160405190810160405280929190818152602001828054611e0290614ca8565b8015611e4f5780601f10611e2457610100808354040283529160200191611e4f565b820191906000526020600020905b815481529060010190602001808311611e3257829003601f168201915b50505050508152602001600382018054611e6890614ca8565b80601f0160208091040260200160405190810160405280929190818152602001828054611e9490614ca8565b8015611ee15780601f10611eb657610100808354040283529160200191611ee1565b820191906000526020600020905b815481529060010190602001808311611ec457829003601f168201915b50505050508152602001600482018054611efa90614ca8565b80601f0160208091040260200160405190810160405280929190818152602001828054611f2690614ca8565b8015611f735780601f10611f4857610100808354040283529160200191611f73565b820191906000526020600020905b815481529060010190602001808311611f5657829003601f168201915b50505050508152602001600582018054611f8c90614ca8565b80601f0160208091040260200160405190810160405280929190818152602001828054611fb890614ca8565b80156120055780601f10611fda57610100808354040283529160200191612005565b820191906000526020600020905b815481529060010190602001808311611fe857829003601f168201915b5050509183525050600682015460208201526007820154604082015260088201546060820152600990910154608090910152600b820154600c830154600d840154600e850154600f86015460109096015494956001600160a01b03909416949293919290919088565b60606000805b6006548110156120e4576000818152600760205260409020600201546001600160a01b03163314806120bf57506000818152600760205260409020600301546001600160a01b031633145b156120d257816120ce81614c8f565b9250505b806120dc81614c8f565b915050612074565b506000816001600160401b038111156120ff576120ff6145a8565b60405190808252806020026020018201604052801561216e57816020015b604080516101008101825260008082526020808301829052928201819052606082018190526080820181905260a0820181905260c0820181905260e0820152825260001990920191018161211d5790505b5090506000805b600654811015610b10576000818152600760205260409020600201546001600160a01b03163314806121c057506000818152600760205260409020600301546001600160a01b031633145b1561226d57600081815260076020908152604091829020825161010080820185528254825260018301549382019390935260028201546001600160a01b03908116948201949094526003820154909316606084015260048101546080840152600581015460a08401526006015460ff808216151560c085015291900416151560e0820152838361224f81614c8f565b94508151811061226157612261614cdc565b60200260200101819052505b8061227781614c8f565b915050612175565b6040805160c0810182523381526020808201888152828401889052606083018790526080830186905260a083018590526000805481526001808452949020835181546001600160a01b0319166001600160a01b03909116178155905180519394859492936122f2939185019201906140f3565b506040820151805161230e9160028401916020909101906140f3565b506060820151805161232a9160038401916020909101906140f3565b50608082015180516123469160048401916020909101906140f3565b5060a082015180516123629160058401916020909101906140f3565b50506000805491508061237483614c8f565b9190505550505050505050565b600085815260036020526040902060098101548511156123d95760405162461bcd60e51b81526020600482015260136024820152724e6f7420656e6f756768207175616e7469747960681b60448201526064016115e3565b848160070154111561242d5760405162461bcd60e51b815260206004820152601d60248201527f5175616e74697479206973206c657373207468616e206d696e696d756d00000060448201526064016115e3565b84816008015410156124815760405162461bcd60e51b815260206004820152601d60248201527f5175616e74697479206973206d6f7265207468616e206d6178696d756d00000060448201526064016115e3565b60018101546040516001600160a01b03909116903480156108fc02916000818181858888f193505050501580156124bc573d6000803e3d6000fd5b50848160090160008282546124d19190614cf2565b9091555050604080516101008101825260045481528151610140810183528354815260018401546001600160a01b0316602082810191909152600285018054600095928501939287929084019161252790614ca8565b80601f016020809104026020016040519081016040528092919081815260200182805461255390614ca8565b80156125a05780601f10612575576101008083540402835291602001916125a0565b820191906000526020600020905b81548152906001019060200180831161258357829003601f168201915b505050505081526020016003820180546125b990614ca8565b80601f01602080910402602001604051908101604052809291908181526020018280546125e590614ca8565b80156126325780601f1061260757610100808354040283529160200191612632565b820191906000526020600020905b81548152906001019060200180831161261557829003601f168201915b5050505050815260200160048201805461264b90614ca8565b80601f016020809104026020016040519081016040528092919081815260200182805461267790614ca8565b80156126c45780601f10612699576101008083540402835291602001916126c4565b820191906000526020600020905b8154815290600101906020018083116126a757829003601f168201915b505050505081526020016005820180546126dd90614ca8565b80601f016020809104026020016040519081016040528092919081815260200182805461270990614ca8565b80156127565780601f1061272b57610100808354040283529160200191612756565b820191906000526020600020905b81548152906001019060200180831161273957829003601f168201915b505050505081526020016006820154815260200160078201548152602001600882015481526020016009820154815250508152602001336001600160a01b0316815260200187815260200134815260200186815260200185815260200184815250905080600560006004548152602001908152602001600020600082015181600001556020820151816001016000820151816000015560208201518160010160006101000a8154816001600160a01b0302191690836001600160a01b0316021790555060408201518160020190805190602001906128359291906140f3565b50606082015180516128519160038401916020909101906140f3565b506080820151805161286d9160048401916020909101906140f3565b5060a082015180516128899160058401916020909101906140f3565b5060c082810151600683015560e08084015160078401556101008401516008840155610120909301516009909201919091556040840151600b840180546001600160a01b0319166001600160a01b039092169190911790556060840151600c8401556080840151600d84015560a0840151600e840155830151600f83015591909101516010909101556004805490600061292283614c8f565b919050555050505050505050565b60606000805b600a548110156129a3576000818152600b60205260409020546001600160a01b031633148061297e57506000818152600b60205260409020600101546001600160a01b031633145b15612991578161298d81614c8f565b9250505b8061299b81614c8f565b915050612936565b506000816001600160401b038111156129be576129be6145a8565b604051908082528060200260200182016040528015612a1957816020015b6040805160a08101825260008082526020820152606091810182905281810182905260808101919091528152602001906001900390816129dc5790505b5090506000805b600a54811015610b10576000818152600b60205260409020546001600160a01b0316331480612a6857506000818152600b60205260409020600101546001600160a01b031633145b15612c8a576000818152600b6020908152604091829020825160a08101845281546001600160a01b039081168252600183015416928101929092526002810180549293919291840191612aba90614ca8565b80601f0160208091040260200160405190810160405280929190818152602001828054612ae690614ca8565b8015612b335780601f10612b0857610100808354040283529160200191612b33565b820191906000526020600020905b815481529060010190602001808311612b1657829003601f168201915b50505050508152602001600382018054612b4c90614ca8565b80601f0160208091040260200160405190810160405280929190818152602001828054612b7890614ca8565b8015612bc55780601f10612b9a57610100808354040283529160200191612bc5565b820191906000526020600020905b815481529060010190602001808311612ba857829003601f168201915b50505050508152602001600482018054612bde90614ca8565b80601f0160208091040260200160405190810160405280929190818152602001828054612c0a90614ca8565b8015612c575780601f10612c2c57610100808354040283529160200191612c57565b820191906000526020600020905b815481529060010190602001808311612c3a57829003601f168201915b505050505081525050838380612c6c90614c8f565b945081518110612c7e57612c7e614cdc565b60200260200101819052505b80612c9481614c8f565b915050612a20565b606060006002546001600160401b03811115612cba57612cba6145a8565b604051908082528060200260200182016040528015612cf357816020015b612ce0614177565b815260200190600190039081612cd85790505b50905060005b600254811015611444576000818152600360209081526040918290208251610140810184528154815260018201546001600160a01b0316928101929092526002810180549293919291840191612d4e90614ca8565b80601f0160208091040260200160405190810160405280929190818152602001828054612d7a90614ca8565b8015612dc75780601f10612d9c57610100808354040283529160200191612dc7565b820191906000526020600020905b815481529060010190602001808311612daa57829003601f168201915b50505050508152602001600382018054612de090614ca8565b80601f0160208091040260200160405190810160405280929190818152602001828054612e0c90614ca8565b8015612e595780601f10612e2e57610100808354040283529160200191612e59565b820191906000526020600020905b815481529060010190602001808311612e3c57829003601f168201915b50505050508152602001600482018054612e7290614ca8565b80601f0160208091040260200160405190810160405280929190818152602001828054612e9e90614ca8565b8015612eeb5780601f10612ec057610100808354040283529160200191612eeb565b820191906000526020600020905b815481529060010190602001808311612ece57829003601f168201915b50505050508152602001600582018054612f0490614ca8565b80601f0160208091040260200160405190810160405280929190818152602001828054612f3090614ca8565b8015612f7d5780601f10612f5257610100808354040283529160200191612f7d565b820191906000526020600020905b815481529060010190602001808311612f6057829003601f168201915b50505050508152602001600682015481526020016007820154815260200160088201548152602001600982015481525050828281518110612fc057612fc0614cdc565b60200260200101819052508080612fd690614c8f565b915050612cf9565b600b602052600090815260409020805460018201546002830180546001600160a01b0393841694929093169261301390614ca8565b80601f016020809104026020016040519081016040528092919081815260200182805461303f90614ca8565b801561308c5780601f106130615761010080835404028352916020019161308c565b820191906000526020600020905b81548152906001019060200180831161306f57829003601f168201915b5050505050908060030180546130a190614ca8565b80601f01602080910402602001604051908101604052809291908181526020018280546130cd90614ca8565b801561311a5780601f106130ef5761010080835404028352916020019161311a565b820191906000526020600020905b8154815290600101906020018083116130fd57829003601f168201915b50505050509080600401805461312f90614ca8565b80601f016020809104026020016040519081016040528092919081815260200182805461315b90614ca8565b80156131a85780601f1061317d576101008083540402835291602001916131a8565b820191906000526020600020905b81548152906001019060200180831161318b57829003601f168201915b5050505050905085565b60606000805b600454811015613205576000818152600560205260409020600b0154336001600160a01b03909116036131f357816131ef81614c8f565b9250505b806131fd81614c8f565b9150506131b8565b506000816001600160401b03811115613220576132206145a8565b60405190808252806020026020018201604052801561325957816020015b613246614060565b81526020019060019003908161323e5790505b5090506000805b600454811015610b10576000818152600560205260409020600b0154336001600160a01b03909116036135db5760008181526005602090815260409182902082516101008101845281548152835161014081018552600183018054825260028401546001600160a01b03168286015260038401805493969495870194929391928401916132ec90614ca8565b80601f016020809104026020016040519081016040528092919081815260200182805461331890614ca8565b80156133655780601f1061333a57610100808354040283529160200191613365565b820191906000526020600020905b81548152906001019060200180831161334857829003601f168201915b5050505050815260200160038201805461337e90614ca8565b80601f01602080910402602001604051908101604052809291908181526020018280546133aa90614ca8565b80156133f75780601f106133cc576101008083540402835291602001916133f7565b820191906000526020600020905b8154815290600101906020018083116133da57829003601f168201915b5050505050815260200160048201805461341090614ca8565b80601f016020809104026020016040519081016040528092919081815260200182805461343c90614ca8565b80156134895780601f1061345e57610100808354040283529160200191613489565b820191906000526020600020905b81548152906001019060200180831161346c57829003601f168201915b505050505081526020016005820180546134a290614ca8565b80601f01602080910402602001604051908101604052809291908181526020018280546134ce90614ca8565b801561351b5780601f106134f05761010080835404028352916020019161351b565b820191906000526020600020905b8154815290600101906020018083116134fe57829003601f168201915b505050505081526020016006820154815260200160078201548152602001600882015481526020016009820154815250508152602001600b820160009054906101000a90046001600160a01b03166001600160a01b03166001600160a01b03168152602001600c8201548152602001600d8201548152602001600e8201548152602001600f82015481526020016010820154815250508383806135bd90614c8f565b9450815181106135cf576135cf614cdc565b60200260200101819052505b806135e581614c8f565b915050613260565b6040805160a0810182523381526001600160a01b03861660208201529081018490526060810183905260808101829052600a8054600b91600091908261363283614c8f565b9091555081526020808201929092526040908101600020835181546001600160a01b039182166001600160a01b0319918216178355858501516001840180549190931691161790559083015180519192613694926002850192909101906140f3565b50606082015180516136b09160038401916020909101906140f3565b50608082015180516136cc9160048401916020909101906140f3565b50505050505050565b600081815260076020526040902060038101546001600160a01b031633146137305760405162461bcd60e51b815260206004820152600e60248201526d139bdd08185d5d1a1bdc9a5e995960921b60448201526064016115e3565b600681015460ff16156137785760405162461bcd60e51b815260206004820152601060248201526f105b1c9958591e481858d8d95c1d195960821b60448201526064016115e3565b6006810154610100900460ff16156137c55760405162461bcd60e51b815260206004820152601060248201526f105b1c9958591e481c995a9958dd195960821b60448201526064016115e3565b600601805460ff1916600117905550565b6040805160808101825260085480825260208083018681528385018690523360608501526000928352600982529390912082518155925180519293849390926138269260018501929101906140f3565b5060408201516002820155606090910151600390910180546001600160a01b0319166001600160a01b0390921691909117905560088054906000610bff83614c8f565b60606000805b6004548110156138bc57600081815260056020526040902060020154336001600160a01b03909116036138aa57816138a681614c8f565b9250505b806138b481614c8f565b91505061386f565b506000816001600160401b038111156138d7576138d76145a8565b60405190808252806020026020018201604052801561391057816020015b6138fd614060565b8152602001906001900390816138f55790505b5090506000805b600454811015610b1057600081815260056020526040902060020154336001600160a01b0390911603613c925760008181526005602090815260409182902082516101008101845281548152835161014081018552600183018054825260028401546001600160a01b03168286015260038401805493969495870194929391928401916139a390614ca8565b80601f01602080910402602001604051908101604052809291908181526020018280546139cf90614ca8565b8015613a1c5780601f106139f157610100808354040283529160200191613a1c565b820191906000526020600020905b8154815290600101906020018083116139ff57829003601f168201915b50505050508152602001600382018054613a3590614ca8565b80601f0160208091040260200160405190810160405280929190818152602001828054613a6190614ca8565b8015613aae5780601f10613a8357610100808354040283529160200191613aae565b820191906000526020600020905b815481529060010190602001808311613a9157829003601f168201915b50505050508152602001600482018054613ac790614ca8565b80601f0160208091040260200160405190810160405280929190818152602001828054613af390614ca8565b8015613b405780601f10613b1557610100808354040283529160200191613b40565b820191906000526020600020905b815481529060010190602001808311613b2357829003601f168201915b50505050508152602001600582018054613b5990614ca8565b80601f0160208091040260200160405190810160405280929190818152602001828054613b8590614ca8565b8015613bd25780601f10613ba757610100808354040283529160200191613bd2565b820191906000526020600020905b815481529060010190602001808311613bb557829003601f168201915b505050505081526020016006820154815260200160078201548152602001600882015481526020016009820154815250508152602001600b820160009054906101000a90046001600160a01b03166001600160a01b03166001600160a01b03168152602001600c8201548152602001600d8201548152602001600e8201548152602001600f8201548152602001601082015481525050838380613c7490614c8f565b945081518110613c8657613c86614cdc565b60200260200101819052505b80613c9c81614c8f565b915050613917565b60606000805b600254811015613cf757600081815260036020526040902060010154336001600160a01b0390911603613ce55781613ce181614c8f565b9250505b80613cef81614c8f565b915050613caa565b506000816001600160401b03811115613d1257613d126145a8565b604051908082528060200260200182016040528015613d4b57816020015b613d38614177565b815260200190600190039081613d305790505b50905060005b60025481101561405957600081815260036020526040902060010154336001600160a01b0390911603614047576000818152600360209081526040918290208251610140810184528154815260018201546001600160a01b0316928101929092526002810180549293919291840191613dc990614ca8565b80601f0160208091040260200160405190810160405280929190818152602001828054613df590614ca8565b8015613e425780601f10613e1757610100808354040283529160200191613e42565b820191906000526020600020905b815481529060010190602001808311613e2557829003601f168201915b50505050508152602001600382018054613e5b90614ca8565b80601f0160208091040260200160405190810160405280929190818152602001828054613e8790614ca8565b8015613ed45780601f10613ea957610100808354040283529160200191613ed4565b820191906000526020600020905b815481529060010190602001808311613eb757829003601f168201915b50505050508152602001600482018054613eed90614ca8565b80601f0160208091040260200160405190810160405280929190818152602001828054613f1990614ca8565b8015613f665780601f10613f3b57610100808354040283529160200191613f66565b820191906000526020600020905b815481529060010190602001808311613f4957829003601f168201915b50505050508152602001600582018054613f7f90614ca8565b80601f0160208091040260200160405190810160405280929190818152602001828054613fab90614ca8565b8015613ff85780601f10613fcd57610100808354040283529160200191613ff8565b820191906000526020600020905b815481529060010190602001808311613fdb57829003601f168201915b5050505050815260200160068201548152602001600782015481526020016008820154815260200160098201548152505082828151811061403b5761403b614cdc565b60200260200101819052505b8061405181614c8f565b915050613d51565b5092915050565b6040518061010001604052806000815260200161407b614177565b815260200160006001600160a01b0316815260200160008152602001600081526020016000815260200160008152602001600081525090565b6040518060c0016040528060006001600160a01b0316815260200160608152602001606081526020016060815260200160608152602001606081525090565b8280546140ff90614ca8565b90600052602060002090601f0160209004810192826141215760008555614167565b82601f1061413a57805160ff1916838001178555614167565b82800160010185558215614167579182015b8281111561416757825182559160200191906001019061414c565b506141739291506141d3565b5090565b6040518061014001604052806000815260200160006001600160a01b0316815260200160608152602001606081526020016060815260200160608152602001600081526020016000815260200160008152602001600081525090565b5b8082111561417357600081556001016141d4565b6000815180845260005b8181101561420e576020818501810151868301820152016141f2565b81811115614220576000602083870101525b50601f01601f19169290920160200192915050565b600061014082518452602083015161425860208601826001600160a01b03169052565b506040830151816040860152614270828601826141e8565b9150506060830151848203606086015261428a82826141e8565b915050608083015184820360808601526142a482826141e8565b91505060a083015184820360a08601526142be82826141e8565b60c0858101519087015260e080860151908701526101008086015190870152610120948501519490950193909352509192915050565b60006020808301818452808551808352604092508286019150828160051b87010184880160005b838110156143a357603f1989840301855281516101008151855288820151818a87015261434a82870182614235565b838a01516001600160a01b0316878b0152606080850151908801526080808501519088015260a0848101519088015260c0808501519088015260e09384015193909601929092525050938601939086019060010161431b565b509098975050505050505050565b6000806000606084860312156143c657600080fd5b505081359360208301359350604090920135919050565b6000602082840312156143ef57600080fd5b5035919050565b6001600160a01b038716815260c06020820181905260009061441a908301886141e8565b828103604084015261442c81886141e8565b9050828103606084015261444081876141e8565b9050828103608084015261445481866141e8565b905082810360a084015261446881856141e8565b9998505050505050505050565b602080825282516001600160a01b03168282015282015160c060408301526000906144a360e08401826141e8565b90506040840151601f19808584030160608601526144c183836141e8565b925060608601519150808584030160808601526144de83836141e8565b925060808601519150808584030160a08601526144fb83836141e8565b925060a08601519150808584030160c08601525061451982826141e8565b95945050505050565b60006020808301818452808551808352604092508286019150828160051b87010184880160005b838110156143a357603f19898403018552815160808151855288820151818a870152614577828701826141e8565b838a0151878b01526060938401516001600160a01b0316939096019290925250509386019390860190600101614549565b634e487b7160e01b600052604160045260246000fd5b600082601f8301126145cf57600080fd5b81356001600160401b03808211156145e9576145e96145a8565b604051601f8301601f19908116603f01168101908282118183101715614611576146116145a8565b8160405283815286602085880101111561462a57600080fd5b836020870160208301376000602085830101528094505050505092915050565b600080600080600080600080610100898b03121561466757600080fd5b88356001600160401b038082111561467e57600080fd5b61468a8c838d016145be565b995060208b01359150808211156146a057600080fd5b6146ac8c838d016145be565b985060408b01359150808211156146c257600080fd5b6146ce8c838d016145be565b975060608b01359150808211156146e457600080fd5b506146f18b828c016145be565b989b979a50959860808101359760a0820135975060c0820135965060e090910135945092505050565b80356001600160a01b038116811461473157600080fd5b919050565b60006020828403121561474857600080fd5b6147518261471a565b9392505050565b8a81526001600160a01b038a166020820152610140604082018190526000906147838382018c6141e8565b90508281036060840152614797818b6141e8565b905082810360808401526147ab818a6141e8565b905082810360a08401526147bf81896141e8565b9150508560c08301528460e083015283610100830152826101208301529b9a5050505050505050505050565b84815260806020820152600061480460808301866141e8565b6040830194909452506001600160a01b039190911660609091015292915050565b60006101008a835280602084015261483f8184018b614235565b6001600160a01b0399909916604084015250506060810195909552608085019390935260a084019190915260c083015260e09091015292915050565b602080825282518282018190526000919060409081850190868401855b8281101561490d578151805185528681015187860152858101516001600160a01b0390811687870152606080830151909116908601526080808201519086015260a0808201519086015260c08082015115159086015260e0908101511515908501526101009093019290850190600101614898565b5091979650505050505050565b600080600080600060a0868803121561493257600080fd5b85356001600160401b038082111561494957600080fd5b61495589838a016145be565b9650602088013591508082111561496b57600080fd5b61497789838a016145be565b9550604088013591508082111561498d57600080fd5b61499989838a016145be565b945060608801359150808211156149af57600080fd5b6149bb89838a016145be565b935060808801359150808211156149d157600080fd5b506149de888289016145be565b9150509295509295909350565b600080600080600060a08688031215614a0357600080fd5b505083359560208501359550604085013594606081013594506080013592509050565b60006020808301818452808551808352604092508286019150828160051b87010184880160005b838110156143a357888303603f19018552815180516001600160a01b0390811685528882015116888501528681015160a088860181905290614a91828701826141e8565b91505060608083015186830382880152614aab83826141e8565b9250505060808083015192508582038187015250614ac981836141e8565b968901969450505090860190600101614a4d565b6000602080830181845280855180835260408601915060408160051b870101925083870160005b82811015614b3257603f19888603018452614b20858351614235565b94509285019290850190600101614b04565b5092979650505050505050565b6001600160a01b0386811682528516602082015260a060408201819052600090614b6b908301866141e8565b8281036060840152614b7d81866141e8565b90508281036080840152614b9181856141e8565b98975050505050505050565b60008060008060808587031215614bb357600080fd5b614bbc8561471a565b935060208501356001600160401b0380821115614bd857600080fd5b614be4888389016145be565b94506040870135915080821115614bfa57600080fd5b614c06888389016145be565b93506060870135915080821115614c1c57600080fd5b50614c29878288016145be565b91505092959194509250565b60008060408385031215614c4857600080fd5b82356001600160401b03811115614c5e57600080fd5b614c6a858286016145be565b95602094909401359450505050565b634e487b7160e01b600052601160045260246000fd5b600060018201614ca157614ca1614c79565b5060010190565b600181811c90821680614cbc57607f821691505b60208210810361144457634e487b7160e01b600052602260045260246000fd5b634e487b7160e01b600052603260045260246000fd5b600082821015614d0457614d04614c79565b50039056fea264697066735822122021e60a6501b7beaa58f8f0e0ade1852b8c0b5ec66e74e477b1342d6c06887d3864736f6c634300080d0033",
  "immutableReferences": {},
  "source": "// SPDX-License-Identifier: MIT\r\npragma solidity ^0.8.0;\r\n\r\ncontract Market {\r\n    struct User {\r\n        address userAddr;\r\n        string userName;\r\n        string userEmail;\r\n        string userAddress;\r\n        string userPhone;\r\n        string userType;\r\n    }\r\n\r\n    struct Product {\r\n        uint256 productId;\r\n        address ownerAddress;\r\n        string productName;\r\n        string productDescription;\r\n        string productCategory;\r\n        string productImage;\r\n        uint256 productPrice;\r\n        uint256 minQuantity;\r\n        uint256 maxQuantity;\r\n        uint256 totalQuantity;\r\n    }\r\n\r\n    struct Negotiation {\r\n        uint256 negotiationId;\r\n        uint256 productId;\r\n        address buyerAddress;\r\n        address sellerAddress;\r\n        uint256 quantity;\r\n        uint256 totalPrice;\r\n        bool isAccepted;\r\n        bool isRejected;\r\n    }\r\n\r\n    struct Purchase {\r\n        uint256 purchaseId;\r\n        Product product;\r\n        address buyerAddress;\r\n        uint256 quantity;\r\n        uint256 totalPrice;\r\n        int256 accessoriesId1;\r\n        int256 accessoriesId2;\r\n        int256 accessoriesId3;\r\n    }\r\n\r\n    struct AddAccessories {\r\n        uint256 accessoriesId;\r\n        string accessoriesName;\r\n        uint256 accessoriesPricePerKg;\r\n        address ownerAddress;\r\n    }\r\n\r\n    struct Call {\r\n        address requester;\r\n        address requestee;\r\n        string roomId;\r\n        string description;\r\n        string dateTime;\r\n    }\r\n\r\n    uint256 userCount;\r\n    mapping(uint256 => User) public users;\r\n    uint256 productCount;\r\n    mapping(uint256 => Product) public products;\r\n    uint256 purchaseCount;\r\n    mapping(uint256 => Purchase) public purchases;\r\n    uint256 negotiationCount;\r\n    mapping(uint256 => Negotiation) public negotiations;\r\n    uint256 accessoriesCount;\r\n    mapping(uint256 => AddAccessories) public accessories;\r\n    uint256 callCount;\r\n    mapping(uint256 => Call) public calls;\r\n\r\n    constructor() {\r\n        userCount = 0;\r\n        productCount = 0;\r\n        purchaseCount = 0;\r\n        negotiationCount = 0;\r\n        accessoriesCount = 0;\r\n        callCount = 0;\r\n    }\r\n\r\n    function addUser(\r\n        string memory _userName,\r\n        string memory _userEmail,\r\n        string memory _userAddress,\r\n        string memory _userPhone,\r\n        string memory _userType\r\n    ) public {\r\n        User memory newUser = User(\r\n            msg.sender,\r\n            _userName,\r\n            _userEmail,\r\n            _userAddress,\r\n            _userPhone,\r\n            _userType\r\n        );\r\n        users[userCount] = newUser;\r\n        userCount++;\r\n    }\r\n\r\n    function getUser(address userAddress) public view returns (User memory) {\r\n        for (uint256 i = 0; i < userCount; i++) {\r\n            if (users[i].userAddr == userAddress) {\r\n                return users[i];\r\n            }\r\n        }\r\n        return User(address(0), \"\", \"\", \"\", \"\", \"\");\r\n    }\r\n\r\n    function getMyDetails() public view returns (User memory) {\r\n        for (uint256 i = 0; i < userCount; i++) {\r\n            if (users[i].userAddr == msg.sender) {\r\n                return users[i];\r\n            }\r\n        }\r\n        return User(address(0), \"\", \"\", \"\", \"\", \"\");\r\n    }\r\n\r\n    function addProduct(\r\n        string memory _productName,\r\n        string memory _productDescription,\r\n        string memory _productCategory,\r\n        string memory _productImage,\r\n        uint256 _productPrice,\r\n        uint256 _minQuantity,\r\n        uint256 _maxQuantity,\r\n        uint256 _totalQuantity\r\n    ) public {\r\n        Product memory newProduct = Product(\r\n            productCount,\r\n            msg.sender,\r\n            _productName,\r\n            _productDescription,\r\n            _productCategory,\r\n            _productImage,\r\n            _productPrice,\r\n            _minQuantity,\r\n            _maxQuantity,\r\n            _totalQuantity\r\n        );\r\n        products[productCount] = newProduct;\r\n        productCount++;\r\n    }\r\n\r\n    function getProducts() public view returns (Product[] memory) {\r\n        Product[] memory _products = new Product[](productCount);\r\n        for (uint256 i = 0; i < productCount; i++) {\r\n            _products[i] = products[i];\r\n        }\r\n        return _products;\r\n    }\r\n\r\n    function getMyProducts() public view returns (Product[] memory) {\r\n        uint256 totalMyProducts = 0;\r\n        for (uint256 i = 0; i < productCount; i++) {\r\n            if (products[i].ownerAddress == msg.sender) {\r\n                totalMyProducts++;\r\n            }\r\n        }\r\n\r\n        Product[] memory _products = new Product[](totalMyProducts);\r\n        for (uint256 i = 0; i < productCount; i++) {\r\n            if (products[i].ownerAddress == msg.sender) {\r\n                _products[i] = products[i];\r\n            }\r\n        }\r\n        return _products;\r\n    }\r\n\r\n    function addNegotiation(\r\n        uint256 _productId,\r\n        uint256 _quantity,\r\n        uint256 _price\r\n    ) public {\r\n        negotiations[negotiationCount] = Negotiation(\r\n            negotiationCount,\r\n            _productId,\r\n            msg.sender,\r\n            products[_productId].ownerAddress,\r\n            _quantity,\r\n            _price,\r\n            false,\r\n            false\r\n        );\r\n        negotiationCount++;\r\n    }\r\n\r\n    function getNegotiations() public view returns (Negotiation[] memory) {\r\n        uint256 totalNegotiations = 0;\r\n        for (uint256 i = 0; i < negotiationCount; i++) {\r\n            if (\r\n                negotiations[i].buyerAddress == msg.sender ||\r\n                negotiations[i].sellerAddress == msg.sender\r\n            ) {\r\n                totalNegotiations++;\r\n            }\r\n        }\r\n\r\n        Negotiation[] memory _negotiations = new Negotiation[](\r\n            totalNegotiations\r\n        );\r\n        uint256 j = 0;\r\n        for (uint256 i = 0; i < negotiationCount; i++) {\r\n            if (\r\n                negotiations[i].buyerAddress == msg.sender ||\r\n                negotiations[i].sellerAddress == msg.sender\r\n            ) {\r\n                _negotiations[j++] = negotiations[i];\r\n            }\r\n        }\r\n        return _negotiations;\r\n    }\r\n\r\n    function acceptNegotiation(uint256 _negotiationId) public {\r\n        Negotiation storage negotiation = negotiations[_negotiationId];\r\n        require(negotiation.sellerAddress == msg.sender, \"Not authorized\");\r\n        require(negotiation.isAccepted == false, \"Already accepted\");\r\n        require(negotiation.isRejected == false, \"Already rejected\");\r\n        negotiation.isAccepted = true;\r\n    }\r\n\r\n    function rejectNegotiation(uint256 _negotiationId) public {\r\n        Negotiation storage negotiation = negotiations[_negotiationId];\r\n        require(negotiation.sellerAddress == msg.sender, \"Not authorized\");\r\n        require(negotiation.isAccepted == false, \"Already accepted\");\r\n        require(negotiation.isRejected == false, \"Already rejected\");\r\n        negotiation.isRejected = true;\r\n    }\r\n\r\n    function addAccessories(\r\n        string memory _accessoriesName,\r\n        uint256 _accessoriesPricePerKg\r\n    ) public {\r\n        AddAccessories memory newAccessories = AddAccessories(\r\n            accessoriesCount,\r\n            _accessoriesName,\r\n            _accessoriesPricePerKg,\r\n            msg.sender\r\n        );\r\n        accessories[accessoriesCount] = newAccessories;\r\n        accessoriesCount++;\r\n    }\r\n\r\n    function getAccessories() public view returns (AddAccessories[] memory) {\r\n        AddAccessories[] memory _accessories = new AddAccessories[](\r\n            accessoriesCount\r\n        );\r\n        for (uint256 i = 0; i < accessoriesCount; i++) {\r\n            _accessories[i] = accessories[i];\r\n        }\r\n        return _accessories;\r\n    }\r\n\r\n    function purchaseProduct(\r\n        uint256 _productId,\r\n        uint256 _quantity,\r\n        int _accessoriesId1,\r\n        int _accessoriesId2,\r\n        int _accessoriesId3\r\n    ) public payable {\r\n        Product storage product = products[_productId];\r\n        require(product.totalQuantity >= _quantity, \"Not enough quantity\");\r\n        require(\r\n            product.minQuantity <= _quantity,\r\n            \"Quantity is less than minimum\"\r\n        );\r\n        require(\r\n            product.maxQuantity >= _quantity,\r\n            \"Quantity is more than maximum\"\r\n        );\r\n        // require(\r\n        //     msg.value == product.productPrice * _quantity,\r\n        //     \"Insufficient funds\"\r\n        // );\r\n\r\n        // transfer that amount to the owner\r\n        payable(product.ownerAddress).transfer(msg.value);\r\n        product.totalQuantity -= _quantity;\r\n        Purchase memory newPurchase = Purchase(\r\n            purchaseCount,\r\n            product,\r\n            msg.sender,\r\n            _quantity,\r\n            msg.value,\r\n            _accessoriesId1,\r\n            _accessoriesId2,\r\n            _accessoriesId3\r\n        );\r\n        purchases[purchaseCount] = newPurchase;\r\n        purchaseCount++;\r\n    }\r\n\r\n    function getAllMyAccessorySales() public view returns (Purchase[] memory) {\r\n        uint256 totalMyAccessorySales = 0;\r\n        for (uint256 i = 0; i < purchaseCount; i++) {\r\n            if (\r\n                (purchases[i].accessoriesId1 != -1 &&\r\n                    accessories[uint(purchases[i].accessoriesId1)]\r\n                        .ownerAddress ==\r\n                    msg.sender) ||\r\n                (purchases[i].accessoriesId2 != -1 &&\r\n                    accessories[uint(purchases[i].accessoriesId2)]\r\n                        .ownerAddress ==\r\n                    msg.sender) ||\r\n                (purchases[i].accessoriesId3 != -1 &&\r\n                    accessories[uint(purchases[i].accessoriesId3)]\r\n                        .ownerAddress ==\r\n                    msg.sender)\r\n            ) {\r\n                totalMyAccessorySales++;\r\n            }\r\n        }\r\n\r\n        Purchase[] memory _purchases = new Purchase[](totalMyAccessorySales);\r\n        uint256 j = 0;\r\n        for (uint256 i = 0; i < purchaseCount; i++) {\r\n            if (\r\n                (purchases[i].accessoriesId1 != -1 &&\r\n                    accessories[uint(purchases[i].accessoriesId1)]\r\n                        .ownerAddress ==\r\n                    msg.sender) ||\r\n                (purchases[i].accessoriesId2 != -1 &&\r\n                    accessories[uint(purchases[i].accessoriesId2)]\r\n                        .ownerAddress ==\r\n                    msg.sender) ||\r\n                (purchases[i].accessoriesId3 != -1 &&\r\n                    accessories[uint(purchases[i].accessoriesId3)]\r\n                        .ownerAddress ==\r\n                    msg.sender)\r\n            ) {\r\n                _purchases[j++] = purchases[i];\r\n            }\r\n        }\r\n        return _purchases;\r\n    }\r\n\r\n    function getMyPurchases() public view returns (Purchase[] memory) {\r\n        uint256 totalMyPurchases = 0;\r\n        for (uint256 i = 0; i < purchaseCount; i++) {\r\n            if (purchases[i].buyerAddress == msg.sender) {\r\n                totalMyPurchases++;\r\n            }\r\n        }\r\n\r\n        Purchase[] memory _purchases = new Purchase[](totalMyPurchases);\r\n        uint256 j = 0;\r\n        for (uint256 i = 0; i < purchaseCount; i++) {\r\n            if (purchases[i].buyerAddress == msg.sender) {\r\n                _purchases[j++] = purchases[i];\r\n            }\r\n        }\r\n        return _purchases;\r\n    }\r\n\r\n    function getMySales() public view returns (Purchase[] memory) {\r\n        uint256 totalMySales = 0;\r\n        for (uint256 i = 0; i < purchaseCount; i++) {\r\n            if (purchases[i].product.ownerAddress == msg.sender) {\r\n                totalMySales++;\r\n            }\r\n        }\r\n\r\n        Purchase[] memory _purchases = new Purchase[](totalMySales);\r\n        uint256 j = 0;\r\n        for (uint256 i = 0; i < purchaseCount; i++) {\r\n            if (purchases[i].product.ownerAddress == msg.sender) {\r\n                _purchases[j++] = purchases[i];\r\n            }\r\n        }\r\n        return _purchases;\r\n    }\r\n\r\n    function addCall(\r\n        address _requestee,\r\n        string memory _roomId,\r\n        string memory _description,\r\n        string memory _dateTime\r\n    ) public {\r\n        calls[callCount++] = Call(\r\n            msg.sender,\r\n            _requestee,\r\n            _roomId,\r\n            _description,\r\n            _dateTime\r\n        );\r\n    }\r\n\r\n    function getAllMyCalls() public view returns (Call[] memory) {\r\n        uint256 getAllMyCallsNo = 0;\r\n        for (uint256 i = 0; i < callCount; i++) {\r\n            if (\r\n                calls[i].requester == msg.sender ||\r\n                calls[i].requestee == msg.sender\r\n            ) {\r\n                getAllMyCallsNo++;\r\n            }\r\n        }\r\n\r\n        Call[] memory _calls = new Call[](getAllMyCallsNo);\r\n        uint256 j = 0;\r\n        for (uint256 i = 0; i < callCount; i++) {\r\n            if (\r\n                calls[i].requester == msg.sender ||\r\n                calls[i].requestee == msg.sender\r\n            ) {\r\n                _calls[j++] = calls[i];\r\n            }\r\n        }\r\n        return _calls;\r\n    }\r\n}\r\n",
  "sourcePath": "D:\\Major\\2-5\\ui\\truffle\\contracts\\Market.sol",
  "compiler": {
    "name": "solc",
    "version": "0.8.13+commit.abaa5c0e.Emscripten.clang"
  },
  "schemaVersion": "3.4.16",
  "updatedAt": "2024-05-02T08:37:09.171Z",
  "networkType": "ethereum",
  "devdoc": {
    "kind": "dev",
    "methods": {},
    "version": 1
  },
  "userdoc": {
    "kind": "user",
    "methods": {},
    "version": 1
  }
}